:020000040800F2
:10000000280F002089010008D7160008F314000803
:10001000D516000845030008971A000800000000E4
:10002000000000000000000000000000D7180008D9
:100030004703000800000000D5180008D918000880
:10004000A3010008A3010008A3010008A301000800
:10005000A3010008A3010008A3010008A3010008F0
:10006000A3010008A3010008A3010008A3010008E0
:10007000A3010008A3010008A3010008A3010008D0
:10008000A3010008A3010008A3010008A3010008C0
:10009000A3010008A3010008A3010008A3010008B0
:1000A000A3010008A3010008A3010008A3010008A0
:1000B000A9190008B5190008A3010008A301000848
:1000C000A3010008A3010008A3010008A301000880
:1000D000A3010008A3010008A3010008A301000870
:1000E000A3010008A3010008A301000800F002F822
:1000F00000F03AF80AA090E8000C82448344AAF188
:100100000107DA4501D100F02FF8AFF2090EBAE885
:100110000F0013F0010F18BFFB1A43F0010318473B
:100120004829000068290000103A24BF78C878C127
:10013000FAD8520724BF30C830C144BF04680C60ED
:10014000704700000023002400250026103A28BF35
:1001500078C1FBD8520728BF30C148BF0B60704739
:100160001FB51FBD10B510BD00F044F81146FFF7D4
:10017000F7FF01F093FC00F062F803B4FFF7F2FF21
:1001800003BC00F065F800000948804709480047B3
:10019000FEE7FEE7FEE7FEE7FEE7FEE7FEE7FEE737
:1001A000FEE7FEE704480549054A064B7047000094
:1001B00061190008ED00000828090020280F002020
:1001C000280B0020280B002070477047704710B59F
:1001D00000F008F8006810BD10B5044600F002F801
:1001E000046010BD00487047C808002000487047F0
:1001F000C80800207546FFF7F9FFAE4605006946BE
:10020000534620F00700854618B020B5FFF7CAFF17
:10021000BDE820404FF000064FF000074FF0000807
:100220004FF0000B21F00701AC46ACE8C009ACE888
:10023000C009ACE8C009ACE8C0098D46704710B5EC
:100240000446AFF300802046BDE81040FFF795BF9D
:1002500001491820ABBEFEE72600020070470000EF
:1002600070B5044600688168C943C9071CD181681C
:1002700021F00101816000F07BFB05460FE000BF2B
:1002800000F076FB401B022809D9A06A40F010005C
:10029000A062E06A40F00100E062012070BD2068C9
:1002A0008068C043C007EBD0002070BDF8B50026C1
:1002B0000446009600688168C943C90728D0816850
:1002C00041F001018160134813490068B0FBF1F06F
:1002D00000E0401E00900028FBD100F049FB0546DD
:1002E00011E000BF00F044FB401B02280BD9A06ABC
:1002F00040F01000A062E06A40F00100E06284F883
:1003000024600120F8BD20688068C043C007E9D19F
:100310000020F8BD1400002040420F0010B508482E
:1003200000F0C8F90648006801688907FCD5044850
:1003300000F020FA024800F00BF980B210BD000076
:1003400018080020FEE770472DE9F04F0546ADF292
:10035000044D002002466C4624F81020401C80B258
:10036000B0F5007FF8D34FF0010B00BFABF10100F7
:10037000012181401FFA81FA002045E0012101FAA4
:100380000BF11FFA81FE4202B2FBFEF1304A89B244
:1003900032F9119002F5806232F911805FF00002AB
:1003A00002EB0A010F1835F9171001FB09F31E12B1
:1003B00034F9173001FB08F103FB08FC03FB09F3D8
:1003C0001B1203EB21231118A6EB2C2635F811C0C4
:1003D000ACEB060C25F817C034F811C0ACEB030CDD
:1003E00024F817C035F811703E4425F8116034F830
:1003F0001160334424F8113002EB0E018AB2B2F5D9
:10040000007FCDD3401C80B25045B7D30BF1010023
:100410001FFA80FBBBF1090FA8D9012635F9161088
:1004200034F91600494300FB001001F0CAFB01F04B
:1004300073FB01F097FB00B2801125F81600761CC3
:10044000B6B2202EEAD90DF2044DBDE8F08F0000BF
:1004500058220008F8B50024009490F8242025467E
:10046000012A12D0012280F824204A681F23072A7B
:100470000DD20668776B521E02EB820293409F43B7
:100480000B6893401F43776319E00220F8BD0668AC
:100490000D2A0AD2376BD21F02EB820293409F4390
:1004A0000B6893401F43376309E0F76A0D3A02EB8C
:1004B000820293409F430B6893401F43F7620A6890
:1004C000072306680A2A0AD3F7680A3A02EB4202AF
:1004D00093409F438B6893401F43F76008E0376960
:1004E00002EB420293409F438B6893401F43376166
:1004F0000A68102A01D0112A20D1124B02689A42B0
:1005000017D193681B0219D4936843F400039360D6
:100510000968102912D10C490C4A0968B1FBF2F1A3
:1005200001EB8101490000E0491E00910029FBD147
:1005300004E0816A41F020018162012480F82450A6
:100540002046F8BD002401401400002040420F0066
:100550000068C06C704700002DE9F0414FF00007C3
:1005600004003D467ED0A06A002628B9E66284F8E1
:100570002460204600F07EF82046FFF771FEA16A55
:10058000C90600D420B1A06A40F01000A06269E062
:10059000A16A21F4885141F00201A1626268E16917
:1005A000E3680A4347EA43010A43A1684FF48077AE
:1005B000B94209D0012907D05FF00001D4F814C076
:1005C000BCF1010F02D00AE03946F7E7F3B1A36AA4
:1005D00043F02003A362E36A43F00103E36223686C
:1005E000D3F804C02CF4694C4CEA010CC3F804C0E5
:1005F00021688B68DFF870C003EA0C0313438B603B
:10060000A168B9420BD0012909D00CE0DFF85CC029
:10061000A3690CEB43330B4343F40061DFE7218A0A
:100620000D05A5F580152168CB6A23F470032B43D3
:10063000CB62216889680E4B1940914208D1E6626D
:10064000A16A21F0020141F00101A162BDE8F0813F
:10065000A06A20F0020040F01000A062E06A40F0C2
:100660000100E0620120F1E7FDF7E1FF00E0FFFF9C
:10067000FE0E1FFF00B500680B4985B0884210D1FF
:100680000A48816941F4007181618069694600F41A
:10069000007004900120009003200190044800F0B5
:1006A00083F805B000BD00000024014000100240A6
:1006B0000008014070B5044690F8240001280DD0D0
:1006C000012084F824002046FFF7F0FD02004FF0DF
:1006D000000005D084F82400104670BD022070BDD3
:1006E000A16A40F20123994341F48071A1621F4D38
:1006F00023681F49AB4218D10E6816F4702F14D02E
:10070000A66A46F48016A6620E68760505D5A66A26
:1007100026F4005646F48056A662A66AF6040AD568
:10072000E66A26F00606E66206E0A66A26F4801669
:10073000A6625E68E9E7E06284F824006FF00200D8
:10074000186020688368C3F34243072B05D1A84291
:1007500008D1096811F4702F04D0816841F4801128
:100760008160B9E7816841F4A001F9E70028014000
:100770000424014010B5044690F82400012807D055
:10078000012084F824002046FFF76AFD10B107E03D
:10079000022010BDA16A21F4885141F00101A1623B
:1007A000002184F8241010BD2DE9F84FDFF890A146
:1007B00000220AF1040B144601274FF00F090BF138
:1007C000040E00BF0B6807FA04F52B40AB4274D14E
:1007D000DFF870C14E68A6EB0C0866452BD00DDC27
:1007E000032E34D005DC36B3012E19D0022E2FD1C2
:1007F0001BE0112E16D0122E2AD119E0B8F5881F51
:1008000019D006DCB8F5803F15D0B8F5801F1FD190
:1008100011E0B8F5001F0ED0B8F5041F18D10AE09A
:10082000CA6815E0CA68121D12E0CA6808320FE0F3
:10083000CA680C320CE08A682AB1012A4FF008021B
:1008400003D0456104E0042202E0056100E00022DB
:10085000FF2B01D8064601E000F104064FEA8405AB
:1008600001D9A5F12005D6F800C009FA05F82CEA4F
:10087000080C02FA05F54CEA050CC6F800C04D68F4
:10088000ED0057D5304DAE6946F00106AE61AD6959
:1008900024F0030605F0010500952C4D06EB050C30
:1008A000DCF80850A6074FEA167809FA08F6B543AF
:1008B000274EB04202D1002610E03BE0254EB04268
:1008C00001D101260AE0244EB04201D1022605E002
:1008D000224EB04201D1032600E0042606FA08F6B3
:1008E0002E43CCF808604D68DAF80060ED035546F9
:1008F00001D51E4300E09E432E604D68DBF800608A
:10090000AD035D4601D51E4300E09E432E604D6859
:10091000DEF80060ED02754601D51E4300E09E43FF
:100920002E604D68AD020E4D2E6801D51E4300E0CD
:100930009E432E60641C102CFFF444AFBDE8F88F7A
:1009400000040140000011100010024000000140AE
:1009500000080140000C014000100140001401405B
:100960000C0401400AB1016170470904FBE7000073
:100970000148806870470000080000200248816834
:10098000027811448160704708000020074810B5C4
:10099000016841F010010160032000F09DF8002083
:1009A00000F006F800F024F8002010BD00200240FE
:1009B00070B50D4D04464FF47A712878B1FBF0F014
:1009C0000A490968B1FBF0F000F083FB48B9102C2C
:1009D00007D200222146501E00F05EF800206C6015
:1009E00070BD012070BD0000080000201400002030
:1009F000214808B5816941F001018161816901F0F7
:100A000001010091C16941F08051C161C06900F0EC
:100A100080500090032000F05FF8002211466FF034
:100A20000B0000F039F8002211466FF00A0000F0C8
:100A300033F8002211466FF0090000F02DF8002273
:100A40001146501F00F028F800221146101F00F038
:100A500023F800221146901E00F01EF800221146D5
:100A6000501E00F019F80548416821F0E06141F09E
:100A70000071416008BD000000100240000001400C
:100A800000F01F02012191404009800000F1E020A8
:100A9000C0F8001170470000F0B40E4B1B680C4604
:100AA000C3F30223C3F10705042D00D90425191D42
:100AB000072901D2002300E0DB1E012606FA05F11A
:100AC000491E214099409E40761E16403143F0BC9D
:100AD00000F002BE0CED00E0064900F007020868D5
:100AE0004FF6FF03184040EA0220034A1043086013
:100AF000704700000CED00E00000FA052DE9F84316
:100B000005460078354CC00754D0E0690026C00087
:100B100008D4E06940F08050E061E069012600F00F
:100B2000805000902E480168C90512D401688046A3
:100B300041F480710160FFF71BFF074605E000BF2D
:100B4000FFF716FFC01B642823D8D8F80000C005A3
:100B5000F6D5206A10F4407021D0A98801F44071C4
:100B600081421CD0206A1F49012220F440700A6093
:100B700000220A602062C00711D0FFF7F9FE074685
:100B800041F2883808E000BFFFF7F2FEC11B414583
:100B900002D90320BDE8F883206A8007F4D5206AD3
:100BA000696820F44070084320621EB1E06920F0BB
:100BB0008050E0612878800705D56068A96820F436
:100BC0004040084360602878C00605D56068E96841
:100BD00020F48000084360600020DBE70010024042
:100BE00000700040400442422DE9F047DFF83C81AC
:100BF00005460E46D8F8000000F00700B0420CD2BF
:100C0000D8F8001021F007013143C8F80010D8F8D7
:100C1000000000F00700B04263D12878444C800700
:100C200005D56068A96820F0F00008436060287866
:100C3000C00745D06868012816D02168022816D060
:100C4000890700294DDA616821F0030101436160E1
:100C5000FFF78EFE6968074641F2883001290FD000
:100C60000229814619D027E021688903E9E7890133
:100C7000E7E700BFFFF77CFEC11B494501D918E03B
:100C800081466068C0F381000128F3D118E000BFFD
:100C9000FFF76EFEC11B49450BD86068C0F38100A9
:100CA0000228F5D10CE000BFFFF762FEC11B4945E9
:100CB00002D90320BDE8F087606810F00C0FF3D173
:100CC000D8F80010404601F00701B1420BD9016885
:100CD00021F0070131430160006800F00700B042D5
:100CE00001D00120E6E72878400705D56068E9686B
:100CF00020F4E060084360602878000706D560684B
:100D0000296920F4605040EAC100606000F01CF8DE
:100D10006168084AC1F30311515CC8400649086084
:100D20000020FFF745FE0020C4E70000002002403D
:100D300000100240582A00081400002001480068F2
:100D4000704700001400002012A185B00FC98DE883
:100D50000F0014A0144A006804905168134801F071
:100D60000C03042B10D0082B0ED1C1F38343C9030D
:100D70001DF803000AD5516804AAC1F34041515C33
:100D80000A4A5043B0FBF1F005B0704708494843A8
:100D9000FAE7000002030405060708090A0B0C0D18
:100DA0000E0F1010010200000010024000127A0025
:100DB00000093D002DE9F84F04460078B94DC00701
:100DC00048D06868C0F38100012807D06868C0F384
:100DD0008100022809D16868C00306D5286880030D
:100DE00038D5606800286FD034E06068B0F5803F87
:100DF0000BD010B1B0F5A02F11D0286820F48030AE
:100E00002860286820F4802002E0286840F48030C0
:100E10002860606888B1FFF7ABFD064609E02868E6
:100E200040F480202860F0E7FFF7A2FD801B6428D3
:100E300075D828688003F7D50CE0FFF799FD0646C2
:100E400005E000BFFFF794FD801B6428F0D82868F8
:100E50008003F7D42078944E80074FF001094FF0BB
:100E600000083BD5686810F00C0F07D06868C0F325
:100E70008100022809D16868C00306D42868800769
:100E800014D5206901281FD110E02069B0B1C6F83F
:100E90000090FFF76DFD074605E000BFFFF768FD16
:100EA000C01B0228C4D828688007F7D52868616964
:100EB00020F0F80040EAC10028600FE0C6F800808A
:100EC000FFF756FD074606E0E9E000BFFFF750FDDB
:100ED000C01B022823D828688007F7D42078000791
:100EE0002CD57248A169D9B1C0F80090FFF740FD38
:100EF000074604E0FFF73CFDC01B02280FD8686AD4
:100F00008007F7D56A484FF4FA510068B0FBF1F05A
:100F1000009000BF0098411E0091FAD20EE080E0E0
:100F2000C0F80080FFF724FD074604E0FFF720FD2E
:100F3000C01B022875D8686A8007F7D4207840075C
:100F400060D5E8690027C00008D4E86940F0805007
:100F5000E861E869012700F0805000905548016879
:100F6000C90513D40168834641F480710160FFF71D
:100F7000FFFC824606E000BFFFF7FAFCA0EB0A0088
:100F800064284ED8DBF80000C005F5D5E0680128DC
:100F90000AD008B1052813D0286A20F00100286281
:100FA000286A20F0040002E0286A40F0010028626C
:100FB000E06841F2883B98B1FFF7DAFC82460BE02B
:100FC000286A40F004002862EEE700BFFFF7D0FC7B
:100FD000A0EB0A0159455AD8286A8007F6D50CE0DB
:100FE000FFF7C6FC824605E0FFF7C2FCA0EB0A0152
:100FF00059454CD8286A8007F6D41FB1E86920F01B
:101000008050E861E06988B36968C1F38101022911
:1010100045D00228C6F8608004D0FFF7A9FC04463A
:1010200038E034E0FFF7A4FC074604E0FFF7A0FC3B
:10103000C01B02282BD828688001F7D4206AB0F59D
:10104000803F05D16868A16820F4003008436860DB
:10105000D4E908010843696821F474110843686001
:10106000C6F86090FFF784FC044606E015E000BF78
:10107000FFF77EFC001B022809D828688001F7D5FD
:101080000BE000BFFFF774FC001B022802D903200D
:10109000BDE8F88F28688001F4D40020F8E701202B
:1010A000F6E7000000100240000042428004424285
:1010B00014000020007000404FF0E021042808696F
:1010C00003D020F004000861704740F00400FAE704
:1010D000704710B5401EB0F1807F01D3012010BDD4
:1010E0004FF0E02460610F21601700F0F5FA002056
:1010F000A06107202061002010BD10B5FFF7E8FFB8
:1011000010BD7047704730B590F83C20012A20D0C0
:10111000012280F83C20022380F83D3003685C689F
:1011200024F070045C6003685C680D682C435C60AC
:1011300003689C6824F080049C6003689C6849688C
:101140000C439C6080F83D20002180F83C1008464C
:1011500030BD022030BD10B5040003D094F83D002E
:1011600010B107E0012010BD002084F83C002046AB
:1011700000F00CF8022084F83D00211D206800F0EA
:101180001FFC012084F83D00002010BD08B5016857
:101190001448B1F1804F14D0134A914220D1C16953
:1011A00041F00201C161C069002200F0020000901C
:1011B00011461D20FFF770FC1D20BDE80840FFF719
:1011C0005FBCC16941F00101C161C069002200F04A
:1011D0000100009011461C20FFF75EFC1C20ECE78C
:1011E00008BD000000100240000400400168CA6809
:1011F00042F00102CA600068016841F0010101602B
:10120000002070470168CA6822F00102CA600068C5
:10121000016A41F21112114207D1016A9210114282
:1012200003D1016821F0010101600020704770B511
:10123000044690F83C00012817D0012584F83C5062
:10124000022084F83D002068826822F0770222F4B0
:101250007F4282600868502837D00DDC202859D0A2
:1012600005DC88B3102841D151E0022070BD302840
:1012700053D040283AD13FE060282ED070280BD0C0
:10128000B0F5805F03D0B0F5005F2FD110E020688B
:10129000816821F0070115E0CB68D1E901212068C0
:1012A00000F0C4FB2168886840F0770088601DE08A
:1012B000CB68D1E90121206800F0B8FB2068816883
:1012C00041F48041816011E01EE0CA6849682068ED
:1012D00000F0BEFB5021206806E0CA68496820681B
:1012E00000F0C7FB6021206800F0AAFB84F83D50A5
:1012F000002084F83C0070BDCA684968206800F08E
:10130000A7FB40212068EFE700212068ECE71021CF
:101310002068E9E720212068E6E730212068E3E73C
:10132000704770B50446006801694FF00005C94375
:10133000890715D4C168C943890711D4E91E016121
:1013400001202077206880698007204602D0FFF7BF
:10135000E7FF04E000F098F8204600F096F82577C3
:1013600020680169C943490717D4C168C9434907BF
:1013700013D46FF004010161022020772068806996
:1013800010F4407F204602D0FFF7CAFF04E000F0CF
:101390007BF8204600F079F8257720680169C94379
:1013A000090716D4C168C943090712D46FF00801B0
:1013B0000161042020772068C0698007204602D0A0
:1013C000FFF7AEFF04E000F05FF8204600F05DF8A4
:1013D000257720680169C943C90617D4C168C94384
:1013E000C90613D46FF0100101610820207720682E
:1013F000C06910F4407F204602D0FFF791FF04E05F
:1014000000F042F8204600F040F825772068016996
:10141000C943C90708D1C168C943C90704D1891E96
:101420000161204600F032F820680169C9430906CD
:1014300009D4C168C943090605D46FF08001016170
:101440002046FFF75EFE20680169C943490609D4BA
:10145000C168C943490605D46FF0400101612046C7
:1014600000F046F820680169C94389060BD4C168B9
:10147000C943890607D46FF0200101612046BDE809
:101480007040FFF73FBE70BD7047704710B51349FD
:1014900000680968884203D1BDE8104000F086B9B1
:1014A0000F490968884217D1FEF738FF82080D48B6
:1014B0008178002910D10C4B81880C4C33F8113005
:1014C000491C89B224F813208180B1F5007F03D92B
:1014D000012181700021818010BD0000480800209A
:1014E0008808002000000020581E00081804002072
:1014F0007047FEE73EB51248002410498460C4607E
:1015000044610160012505614FF460214460C161BF
:10151000FFF722F818B143210AA000F0BDFACDE987
:101520000045694606480294FEF794FF002803D060
:101530004D2104A000F0B0FA3EBD0000002401409F
:10154000180800202E2E2F5372632F6164632E63C0
:10155000000000002DE9F0411F4886B0816941F08C
:1015600020018161816901F020010491816941F0CC
:1015700004018161816901F004010491816941F0F4
:10158000080181618069154F00F008004FF4704434
:101590000490012221463846FFF7E4F9DFF8408045
:1015A0004FF4E066012231464046FFF7DBF9009434
:1015B00001240325694638460194CDE90245FFF729
:1015C000F3F8CDE9006469464046CDE90245FFF7EE
:1015D000EBF806B0BDE8F08100100240000C0140BD
:1015E0000008014010B5184886B04FF080410160F6
:1015F00048210024C0E9011440F22B11C0E9031472
:1016000080218161FFF7A7FD18B140210FA000F0F4
:1016100043FA4FF48050009069460B48FFF707FEED
:1016200018B1462109A000F037FA049404A906482D
:101630000594FFF768FD002803D04D2103A000F0BA
:101640002BFA06B010BD0000480800202E2E2F53A4
:1016500072632F74696D2E630000000010B5184886
:1016600086B01649016048210024C0E901141921FF
:10167000C0E9031480218161FFF76DFD18B15F217E
:1016800010A000F009FA4FF48050009069460C4811
:10169000FFF7CDFD18B165210AA000F0FDF9049413
:1016A00004A907480594FFF72EFD002803D06C21FC
:1016B00004A000F0F1F906B010BD000000040040E5
:1016C000880800202E2E2F5372632F74696D2E63AD
:1016D00000000000FEE770470907090E002806DA3F
:1016E00000F00F0000F1E02080F8141D704700F1B9
:1016F000E02080F800147047F0B52B4A0121002645
:101700000F2502F5007300BF30F91140102C15DBD6
:101710005FF01004C4F1100702EB471C8C4403EB8C
:1017200047170F44641E0CF8015CA4B207F8016C63
:10173000012CEFD830F91140102C27DA30F8114085
:101740000EE000BFC4F1100702EB471C8C4403EB12
:1017500047170F440CF8015C641E07F8016CA4B233
:10176000012CEFD810240DE0C4F1100703EB471C47
:101770008C4402EB47170F440CF8016C641E07F809
:10178000016CA4B230F91170A742EDDB30F81140C2
:101790002CB9541884F8DF615C1884F8DF51491CB7
:1017A00089B22029B0D9F0BD180000202DE9F05FE2
:1017B000012211034348FFF7D5F8DFF80CB10026EA
:1017C0005FF000059BF80000404A401B0C30C0B29F
:1017D00002EB401A02F50072002402EB4019A01936
:1017E000C7B29BF801001AF80710D846814201D908
:1017F000012200E000224FF400713548FFF7B2F8F3
:1018000019F8071098F80100814201D9012200E07F
:1018100000224FF480612E48FFF7A4F8294F4FF4BF
:101820000048012241463846FFF79CF80022414615
:101830003846FFF797F8641CE4B2102CCFD32D1D67
:10184000EDB20C2DBED91036F6B2102EB8D9012249
:101850001F4C150229462046FFF784F8002229462E
:101860002046FFF77FF89BF800005C4680074FF4A6
:10187000804101D5012200E000221248FFF772F8F2
:1018800020784FF40051C00701D0012200E000226F
:101890000C48FFF767F800224FF480510948FFF722
:1018A00061F82078401CC0B22070042808D10020C4
:1018B00020706178491CC9B261700F2900D1607035
:1018C000BDE8F09F000C014000000020180000203F
:1018D000000801407047704710B5FFF74FF8BDE8AA
:1018E0001040FFF70ABC30B593B001210804CDE9E0
:1018F00000100025029502240491CDE907404FF421
:10190000E01009906846FFF755FA00B1FEE70AA912
:101910000F2081E831004FF48060CDE90D050221F0
:101920000AA8FFF761F900B1FEE74FF400401190FB
:101930000F940FA8FFF7E2F800B1FEE7FFF7FEF9FA
:101940004FF47A71B0FBF1F0FFF7C3FB0420FFF70F
:10195000B3FB00221146501EFFF79EF813B030BDB6
:101960000D48016841F00101016041680B4A1140D6
:10197000416001680A4A11400160016821F4802138
:101980000160416821F4FE0141604FF41F01816054
:101990000449C00308607047001002400000FFF8CF
:1019A000FFFFF6FE08ED00E00148FFF7BABC0000BB
:1019B000480800200148FFF7B4BC00008808002058
:1019C000F0B50268164B174C174D4FF08047984200
:1019D00005D0B84203D0A04201D0A84203D122F0E2
:1019E00070064A683243984205D0B84203D0A042FC
:1019F00001D0A84203D122F44074CA68224322F0E5
:101A000080044A69224302608A68C2620A6882626C
:101A1000984201D10969016301214161F0BD0000D3
:101A2000002C0140000400400008004010B584680C
:101A300042EA032224F47F440A432243826010BD19
:101A4000826822F070020A4342F007018160704709
:101A500010B5036A046A24F001040462846924F066
:101A6000F00444EA021423F00A020A438461026289
:101A700010BD10B5036A23F0100303628369046A82
:101A800023F4704343EA023224F0A00343EA011135
:101A90008261016210BDFEE7FEE70000FEF776FFFF
:101AA000FFF721FFFFF756FDFFF79CFDFFF7D6FD7F
:101AB000FFF720FD002013490F2201F500730546B2
:101AC0000C1884F8E0511C18401CC0B284F8E021C6
:101AD0002028F5D30C48FFF789FB0C48FFF786FB5D
:101AE0000B4CA0780028FCD00848FFF78BFB094876
:101AF000FEF72AFC0748FFF7FFFDA5700348FFF734
:101B000075FBEEE718000020480800208808002038
:101B100000000020180400202DE9F04106460F4681
:101B200000F0B4F8041E0D4618BF0120284320F031
:101B30000040C0F17F6000F1E040C00F0ED0301CCB
:101B400018BF0120384320F00040C0F17F6000F151
:101B5000E040C00F04BF0120FEF73EFB20462946AF
:101B6000BDE8F0814FEA41034FEA5353A3F5806388
:101B7000D3F11E03C8BFD3F1210C0CDD4FF000429E
:101B800042EAC12242EA505232FA03FC8CEAE17C7A
:101B9000ACEBE1707047102BC4BF0020704703F519
:101BA000787CBCF1FF3F04D06FF0004282EA210054
:101BB000704770B500F01CF84992248000207047EF
:101BC000F2E710F0004248BF4042B0FA80F310FA4A
:101BD00003F10AD0C3F11D0303F580634FEA4150BE
:101BE00002EB035202EBD12170474FF00000704727
:101BF0000EF1020E2EF0030E5EF8046B364205D491
:101C0000012A43EB030515F5001F12D8012841EB0B
:101C1000010C1CF5001F0CD80ED14FEAD17C15F534
:101C2000001F0CEB4C0C0CF1020C08BF4CEBD37CEE
:101C300004E04FF0080C01E04FEAD37C0CEB4C05BC
:101C400026FA05F606F00706B6F1040C06D20EEBEE
:101C5000860CBDE870404CF0010C6047DFE80CF0EA
:101C6000090B02024FF000414FF00000A1F50021E6
:101C700070BD19461046012851EB010418BFD4F578
:101C8000001484BF002001F0004170BD2DE9F04137
:101C900001F5801CBCF5001FC0F2C3804FEA115C47
:101CA00021EA0C510CF1FD0C41F480115FEA5C0C4F
:101CB0000CF5C07C01D3400049413DA4890241EAB2
:101CC000905187028E0E0A0CA45D04FB04F602FB01
:101CD00006F6C6F14046A4FB0662F60D46EA422629
:101CE00006FB06F4A4FB01235242C3F1404338BF74
:101CF0005B1EA6FB02420024E6FB0324D20B42EA51
:101D00004446A6FB0623A1FB02E2A3FB07E4A418BA
:101D10004FF0000252F10002E3FB01426442C2F1C3
:101D2000404E38BFAEF1010EA6FB04234FF0000277
:101D3000E6FB0E32A2FB03464FF00004B61954F145
:101D40000004E2FB0264A1FB06E6A4FB07E816EB35
:101D500008064FF0000858F10008E4FB01687642DD
:101D6000C8F1405838BFA8F10108A2FB06E4A3FB64
:101D700008E52D194FF0000454F10004E2FB08546B
:101D8000A1FB05E6A7FB04E818EB06084FF00006E8
:101D900056F10006E1FB048618F1200556F1000615
:101DA000A809A8F11B08B10908F03F08B8F10A0F0B
:101DB00040EA86601CD901EB0C51BDE8F08100BF00
:101DC000FCF5EEE8E2DDD8D3CFCBC7C3C0BDB9B6D2
:101DD000B4B1AEACA9A7A5A3A19F9D9B9A989695D7
:101DE0009392908F8D8C8B8988878685848382815E
:101DF000A0FB006800FB01F208EB4208B8EB872863
:101E000007D5341858EB0104D5D5401C51F1000119
:101E1000D1E7341A78EB0104CDD4401E71F10001F2
:101E2000C9E75FEA4C0C5FEA9C5C0DD105D34FF02B
:101E3000000001F00041BDE8F081BDE8F04170B55F
:101E4000FFF7D6FE6DDBFFBEBDE8F0414FF00000AE
:101E5000004970470000F87F000000018000800109
:101E600040004001C000C00120002001A000A001EE
:101E700060006001E000E00110001001900090019E
:101E800050005001D000D00130003001B000B0014E
:101E900070007001F000F00108000801880088015E
:101EA00048004801C800C80128002801A800A8016E
:101EB00068006801E800E80118001801980098011E
:101EC00058005801D800D80138003801B800B801CE
:101ED00078007801F800F80104000401840084010E
:101EE00044004401C400C40124002401A400A4014E
:101EF00064006401E400E4011400140194009401FE
:101F000054005401D400D40134003401B400B401AD
:101F100074007401F400F4010C000C018C008C01BD
:101F20004C004C01CC00CC012C002C01AC00AC01CD
:101F30006C006C01EC00EC011C001C019C009C017D
:101F40005C005C01DC00DC013C003C01BC00BC012D
:101F50007C007C01FC00FC01020002018200820185
:101F600042004201C200C20122002201A200A201DD
:101F700062006201E200E20112001201920092018D
:101F800052005201D200D20132003201B200B2013D
:101F900072007201F200F2010A000A018A008A014D
:101FA0004A004A01CA00CA012A002A01AA00AA015D
:101FB0006A006A01EA00EA011A001A019A009A010D
:101FC0005A005A01DA00DA013A003A01BA00BA01BD
:101FD0007A007A01FA00FA010600060186008601FD
:101FE00046004601C600C60126002601A600A6013D
:101FF00066006601E600E6011600160196009601ED
:1020000056005601D600D60136003601B600B6019C
:1020100076007601F600F6010E000E018E008E01AC
:102020004E004E01CE00CE012E002E01AE00AE01BC
:102030006E006E01EE00EE011E001E019E009E016C
:102040005E005E01DE00DE013E003E01BE00BE011C
:102050007E007E01FE00FE01010001018100810180
:1020600041004101C100C10121002101A100A101E4
:1020700061006101E100E101110011019100910194
:1020800051005101D100D10131003101B100B10144
:1020900071007101F100F101090009018900890154
:1020A00049004901C900C90129002901A900A90164
:1020B00069006901E900E901190019019900990114
:1020C00059005901D900D90139003901B900B901C4
:1020D00079007901F900F901050005018500850104
:1020E00045004501C500C50125002501A500A50144
:1020F00065006501E500E5011500150195009501F4
:1021000055005501D500D50135003501B500B501A3
:1021100075007501F500F5010D000D018D008D01B3
:102120004D004D01CD00CD012D002D01AD00AD01C3
:102130006D006D01ED00ED011D001D019D009D0173
:102140005D005D01DD00DD013D003D01BD00BD0123
:102150007D007D01FD00FD0103000301830083017B
:1021600043004301C300C30123002301A300A301D3
:1021700063006301E300E301130013019300930183
:1021800053005301D300D30133003301B300B30133
:1021900073007301F300F3010B000B018B008B0143
:1021A0004B004B01CB00CB012B002B01AB00AB0153
:1021B0006B006B01EB00EB011B001B019B009B0103
:1021C0005B005B01DB00DB013B003B01BB00BB01B3
:1021D0007B007B01FB00FB010700070187008701F3
:1021E00047004701C700C70127002701A700A70133
:1021F00067006701E700E7011700170197009701E3
:1022000057005701D700D70137003701B700B70192
:1022100077007701F700F7010F000F018F008F01A2
:102220004F004F01CF00CF012F002F01AF00AF01B2
:102230006F006F01EF00EF011F001F019F009F0162
:102240005F005F01DF00DF013F003F01BF00BF0112
:102250007F007F01FF00FF01FF00FF00FF00FF0084
:10226000FF00FF00FF00FF00FE00FE00FE00FD007B
:10227000FD00FC00FC00FB00FB00FA00F900F90087
:10228000F800F700F600F500F400F400F300F200A7
:10229000F100EF00EE00ED00EC00EB00EA00E800DA
:1022A000E700E600E400E300E100E000DE00DD001E
:1022B000DB00D900D800D600D400D300D100CF0075
:1022C000CD00CB00C900C700C500C300C100BF00DE
:1022D000BD00BB00B900B700B500B200B000AE0051
:1022E000AB00A900A700A400A2009F009D009B00D6
:1022F00098009500930090008E008B008800860067
:10230000830080007E007B00780075007300700001
:102310006D006A006700640061005F005C005900A6
:102320005600530050004D004A0047004400410051
:102330003E003B003800350031002E002B00280005
:10234000250022001F001C001900150012000F00BC
:102350000C000900060003000000FDFFFAFFF7FF74
:10236000F4FFF1FFEEFFEBFFE7FFE4FFE1FFDEFF2D
:10237000DBFFD8FFD5FFD2FFCFFFCBFFC8FFC5FFE4
:10238000C2FFBFFFBCFFB9FFB6FFB3FFB0FFADFF99
:10239000AAFFA7FFA4FFA1FF9FFF9CFF99FF96FF45
:1023A00093FF90FF8DFF8BFF88FF85FF82FF80FFEB
:1023B0007DFF7AFF78FF75FF72FF70FF6DFF6BFF87
:1023C00068FF65FF63FF61FF5EFF5CFF59FF57FF1A
:1023D00055FF52FF50FF4EFF4BFF49FF47FF45FFA0
:1023E00043FF41FF3FFF3DFF3BFF39FF37FF35FF15
:1023F00033FF31FF2FFF2DFF2CFF2AFF28FF27FF80
:1024000025FF23FF22FF20FF1FFF1DFF1CFF1AFFD8
:1024100019FF18FF16FF15FF14FF13FF12FF11FF1E
:102420000FFF0EFF0DFF0CFF0CFF0BFF0AFF09FF54
:1024300008FF07FF07FF06FF05FF05FF04FF04FF76
:1024400003FF03FF02FF02FF02FF01FF01FF01FF85
:1024500001FF01FF01FF01FF00FF01FF01FF01FF7D
:1024600001FF01FF01FF01FF02FF02FF02FF03FF67
:1024700003FF04FF04FF05FF05FF06FF07FF07FF3B
:1024800008FF09FF0AFF0BFF0CFF0CFF0DFF0EFFFB
:102490000FFF11FF12FF13FF14FF15FF16FF18FFA8
:1024A00019FF1AFF1CFF1DFF1FFF20FF22FF23FF44
:1024B00025FF27FF28FF2AFF2CFF2DFF2FFF31FFCD
:1024C00033FF35FF37FF39FF3BFF3DFF3FFF41FF44
:1024D00043FF45FF47FF49FF4BFF4EFF50FF52FFB1
:1024E00055FF57FF59FF5CFF5EFF61FF63FF65FF0C
:1024F00068FF6BFF6DFF70FF72FF75FF78FF7AFF5B
:102500007DFF80FF82FF85FF88FF8BFF8DFF90FF9F
:1025100093FF96FF99FF9CFF9FFFA1FFA4FFA7FFDA
:10252000AAFFADFFB0FFB3FFB6FFB9FFBCFFBFFF0F
:10253000C2FFC5FFC8FFCBFFCFFFD2FFD5FFD8FF3B
:10254000DBFFDEFFE1FFE4FFE7FFEBFFEEFFF1FF64
:10255000F4FFF7FFFAFFFDFF00000300060009008B
:102560000C000F001200150019001C001F002200B3
:10257000250028002B002E003100350038003B00DC
:102580003E004100440047004A004D005000530007
:10259000560059005C005F006100640067006A003B
:1025A0006D0070007300750078007B007E00800075
:1025B0008300860088008B008E00900093009500B9
:1025C00098009B009D009F00A200A400A700A90006
:1025D000AB00AE00B000B200B500B700B900BB0060
:1025E000BD00BF00C100C300C500C700C900CB00CB
:1025F000CD00CF00D100D300D400D600D800D90040
:10260000DB00DD00DE00E000E100E300E400E600C6
:10261000E700E800EA00EB00EC00ED00EE00EF0060
:10262000F100F200F300F400F400F500F600F7000A
:10263000F800F900F900FA00FB00FB00FC00FC00C8
:10264000FD00FD00FE00FE00FE00FF00FF00FF0099
:10265000FF00FF00FF00FF000000FDFFFAFFF7FF93
:10266000F4FFF1FFEEFFEBFFE7FFE4FFE1FFDEFF2A
:10267000DBFFD8FFD5FFD2FFCFFFCBFFC8FFC5FFE1
:10268000C2FFBFFFBCFFB9FFB6FFB3FFB0FFADFF96
:10269000AAFFA7FFA4FFA1FF9FFF9CFF99FF96FF42
:1026A00093FF90FF8DFF8BFF88FF85FF82FF80FFE8
:1026B0007DFF7AFF78FF75FF72FF70FF6DFF6BFF84
:1026C00068FF65FF63FF61FF5EFF5CFF59FF57FF17
:1026D00055FF52FF50FF4EFF4BFF49FF47FF45FF9D
:1026E00043FF41FF3FFF3DFF3BFF39FF37FF35FF12
:1026F00033FF31FF2FFF2DFF2CFF2AFF28FF27FF7D
:1027000025FF23FF22FF20FF1FFF1DFF1CFF1AFFD5
:1027100019FF18FF16FF15FF14FF13FF12FF11FF1B
:102720000FFF0EFF0DFF0CFF0CFF0BFF0AFF09FF51
:1027300008FF07FF07FF06FF05FF05FF04FF04FF73
:1027400003FF03FF02FF02FF02FF01FF01FF01FF82
:1027500001FF01FF01FF01FF00FF01FF01FF01FF7A
:1027600001FF01FF01FF01FF02FF02FF02FF03FF64
:1027700003FF04FF04FF05FF05FF06FF07FF07FF38
:1027800008FF09FF0AFF0BFF0CFF0CFF0DFF0EFFF8
:102790000FFF11FF12FF13FF14FF15FF16FF18FFA5
:1027A00019FF1AFF1CFF1DFF1FFF20FF22FF23FF41
:1027B00025FF27FF28FF2AFF2CFF2DFF2FFF31FFCA
:1027C00033FF35FF37FF39FF3BFF3DFF3FFF41FF41
:1027D00043FF45FF47FF49FF4BFF4EFF50FF52FFAE
:1027E00055FF57FF59FF5CFF5EFF61FF63FF65FF09
:1027F00068FF6BFF6DFF70FF72FF75FF78FF7AFF58
:102800007DFF80FF82FF85FF88FF8BFF8DFF90FF9C
:1028100093FF96FF99FF9CFF9FFFA1FFA4FFA7FFD7
:10282000AAFFADFFB0FFB3FFB6FFB9FFBCFFBFFF0C
:10283000C2FFC5FFC8FFCBFFCFFFD2FFD5FFD8FF38
:10284000DBFFDEFFE1FFE4FFE7FFEBFFEEFFF1FF61
:10285000F4FFF7FFFAFFFDFF000003000600090088
:102860000C000F001200150019001C001F002200B0
:10287000250028002B002E003100350038003B00D9
:102880003E004100440047004A004D005000530004
:10289000560059005C005F006100640067006A0038
:1028A0006D0070007300750078007B007E00800072
:1028B0008300860088008B008E00900093009500B6
:1028C00098009B009D009F00A200A400A700A90003
:1028D000AB00AE00B000B200B500B700B900BB005D
:1028E000BD00BF00C100C300C500C700C900CB00C8
:1028F000CD00CF00D100D300D400D600D800D9003D
:10290000DB00DD00DE00E000E100E300E400E600C3
:10291000E700E800EA00EB00EC00ED00EE00EF005D
:10292000F100F200F300F400F400F500F600F70007
:10293000F800F900F900FA00FB00FB00FC00FC00C5
:10294000FD00FD00FE00FE00FE00FF00FF00FF0096
:10295000FF00FF00FF00FF000001FF00FF00FF007D
:10296000FF00FF00FF00FF00FE00FE00FE00FD0074
:10297000FD00FC00FC00FB00FB00FA00F900F90080
:10298000F800F700F600F500F400F400F300F200A0
:10299000F100EF00EE00ED00EC00EB00EA00E800D3
:1029A000E700E600E400E300E100E000DE00DD0017
:1029B000DB00D900D800D600D400D300D100CF006E
:1029C000CD00CB00C900C700C500C300C100BF00D7
:1029D000BD00BB00B900B700B500B200B000AE004A
:1029E000AB00A900A700A400A2009F009D009B00CF
:1029F00098009500930090008E008B008800860060
:102A0000830080007E007B007800750073007000FA
:102A10006D006A006700640061005F005C0059009F
:102A20005600530050004D004A004700440041004A
:102A30003E003B003800350031002E002B002800FE
:102A4000250022001F001C001900150012000F00B5
:102A50000C00090006000300000000000000000058
:102A60000102030406070809882A00080000002064
:102A70001800000028010008A02A00081800002003
:102A8000100F0000440100080000000000000000DA
:102A900001000000100000000000000000A24A0435
:04000005080000ED02
:00000001FF
